:020000040800F2
:1000000000500020DD080008250700082D07000823
:10001000350700083D0700084507000800000000FC
:100020000000000000000000000000004D07000874
:100030005907000800000000650700087107000864
:1000400025090008250900082509000825090008D8
:1000500025090008250900082509000825090008C8
:1000600025090008250900082509000825090008B8
:1000700025090008250900082509000825090008A8
:100080002509000825090008250900082509000898
:100090002509000825090008250900082509000888
:1000A0002509000825090008250900082509000878
:1000B0002509000825090008250900082509000868
:1000C0002509000825090008250900082509000858
:1000D000250900087D0700082509000825090008F2
:1000E000250900082509000825090008000000006E
:1000F0000000000000000000000000000000000000
:0C01000000000000000000005FF808F1A3
:10010C0010B5054C237833B9044B13B10448AFF345
:10011C0000800123237010BD680000200000000047
:10012C00243D000808B5034B1BB103490348AFF34A
:10013C00008008BD000000006C000020243D000879
:10014C0080B582B000AF7860391D4FF0FF330122CB
:10015C00034801F0F7FE7B6818460837BD4680BDA2
:10016C008801002080B584B000AF134B1B68FB6086
:10017C00124B1B68BB60BB687B6072B600BF01F0A2
:10018C00E7F900F0E1FB0E4B00221A600C4B002249
:10019C005A600B4B00229A60FB683B603B6883F310
:1001AC00088800BF074B044A9A6062B600BF7B68A0
:1001BC00984700BFFDE700BF00400008044000085E
:1001CC0010E000E000ED00E080B582B000AF00F080
:1001DC00A5FB00F049F800F0ADF800F081F81C48E0
:1001EC0002F02EFF00F010FC034603F51C531033F5
:1001FC007B600821174801F07BF90346FB70FB7804
:10020C00002B06D000F000FC02467B68934200D322
:10021C00EFE7FB78002B15D10F4802F011FF0F48C8
:10022C0002F00EFF00F0ECF80346002B04D00C4853
:10023C0002F006FF00BFFDE70A4802F001FF00F0E4
:10024C0004FD02E0FFF78EFF00BF00BFFDE700BF1B
:10025C003C3D0008000C01406C3D0008943D00083A
:10026C009C3D0008B43D000880B590B000AF07F18C
:10027C00180328220021184602F0C2FF3B1D002261
:10028C001A605A609A60DA601A610223BB6101231A
:10029C00BB621023FB6200237B6307F11803184633
:1002AC0001F0F0F90346002B01D000F0A9F90F235F
:1002BC007B600023BB600023FB604FF480633B61D9
:1002CC0000237B613B1D0021184601F05DFC0346B9
:1002DC00002B01D000F094F900BF4037BD4680BD23
:1002EC0080B500AF114B124A1A60104B4FF4E1323B
:1002FC005A600E4B00229A600C4B0022DA600B4BBA
:10030C0000221A61094B0C225A61084B00229A6197
:10031C00064B0022DA61054801F0C4FD0346002BB0
:10032C0001D000F06DF900BF80BD00BF8801002036
:10033C000038014080B588B000AF07F110030022EF
:10034C001A605A609A60DA602A4B9B69294A43F01A
:10035C0010039361274B9B6903F01003FB60FB6850
:10036C00244B9B69234A43F020039361214B9B69E7
:10037C0003F02003BB60BB681E4B9B691D4A43F016
:10038C00040393611B4B9B6903F004037B607B6844
:10039C00184B9B69174A43F008039361154B9B69F3
:1003AC0003F008033B603B6800224FF400511248F5
:1003BC0001F0B5F84FF400533B6101237B6100233E
:1003CC00BB610223FB6107F1100319460A4800F0D8
:1003DC000BFF08233B6100237B610123BB6107F109
:1003EC0010031946054800F0FFFE00BF2037BD463C
:1003FC0080BD00BF0010024000100140000C014005
:10040C00B0B58EB000AF00237B63644B3B6300F050
:10041C005BFD07F1080300221A605A609A60DA60EB
:10042C005E4B3B6130237B613A1D07F1080311469B
:10043C00184600F031FE0346002B09D07B681946A4
:10044C00574802F095FD00F065FD4FF0FF33A0E03A
:10045C00544802F0F5FD07F1180141F288330822E7
:10046C00514801F0FAFD034687F82B3097F82B30F2
:10047C00002B12D097F82B30032B03D14B4802F0F2
:10048C00DFFD05E097F82B301946494802F070FD66
:10049C0000F040FD4FF0FF337BE0464802F0D0FD0A
:1004AC0007F118031B687B6300BF7B6B002B6FD0BD
:1004BC00414802F0C5FD5EE07B6BB3F5807F28BF41
:1004CC004FF480737B623C4802F0BAFD3B4B002238
:1004DC001A707B6A9BB21A463949334801F054FEB4
:1004EC0000F092FA386213E000F08EFA02463B6A92
:1004FC00D31A41F2883293420AD92B4801F069FE93
:10050C00304802F09DFD00F005FD4FF0FF3340E058
:10051C002A4B1B78DBB2002BE6D00023FB621FE0DA
:10052C00FB6A274A13441B683B603B6800221C464D
:10053C00154622462B46396B022000F055FC03462B
:10054C00002B07D0204802F07BFD00F0E3FC4FF0BD
:10055C00FF331EE03B6B04333B63FB6A0433FB62EB
:10056C00FA6A7B6A9A42DBD3124802F069FD7A6B15
:10057C007B6AD31A7B637B6B002B9DD100F0CAFC8A
:10058C00124802F05DFD124802F05AFD002300E013
:10059C00002318463837BD46B0BD00BF00400008E8
:1005AC00D03D0008F03D000888010020083E0008FE
:1005BC002C3E0008503E0008543E000884010020E8
:1005CC0084000020603E00087C3E0008903E00083D
:1005DC00983E000880B483B000AF78607B681B68DD
:1005EC00054A934202D1054B01221A7000BF0C3709
:1005FC00BD4680BC704700BF00380140840100201C
:10060C0080B400AF72B600BF00BFFDE780B485B008
:10061C0000AF154B9B69144A43F001039361124BD5
:10062C009B6903F00103BB60BB680F4BDB690E4A8F
:10063C0043F08053D3610C4BDB6903F080537B6038
:10064C007B680A4B5B68FB60FB6823F0E063FB6034
:10065C00FB6843F08063FB60044AFB68536000BF97
:10066C001437BD4680BC70470010024000000140AA
:10067C0080B588B000AF786007F1100300221A60D3
:10068C005A609A60DA607B681B68204A934239D1C1
:10069C001F4B9B691E4A43F4804393611C4B9B691F
:1006AC0003F48043FB60FB68194B9B69184A43F0C9
:1006BC0004039361164B9B6903F00403BB60BB6896
:1006CC004FF400733B6102237B610323FB6107F151
:1006DC00100319460F4800F087FD4FF480633B610F
:1006EC0000237B610023BB6107F110031946094805
:1006FC0000F07AFD00220021252000F07CFA252054
:10070C0000F095FA00BF2037BD4680BD003801408F
:10071C00001002400008014080B400AF00BFFDE7AC
:10072C0080B400AF00BFFDE780B400AF00BFFDE7B1
:10073C0080B400AF00BFFDE780B400AF00BFFDE7A1
:10074C0080B400AF00BFBD4680BC704780B400AF22
:10075C0000BFBD4680BC704780B400AF00BFBD4633
:10076C0080BC704780B500AF00F03CF900BF80BD85
:10077C0080B500AF024801F0CFFD00BF80BD00BFC7
:10078C008801002080B586B000AFF860B9607A604F
:10079C0000237B610AE0AFF300800146BB685A1C62
:1007AC00BA60CAB21A707B6901337B617A697B6863
:1007BC009A42F0DB7B6818461837BD4680BD80B581
:1007CC0086B000AFF860B9607A6000237B6109E005
:1007DC00BB685A1CBA601B781846FFF7B1FC7B69E2
:1007EC0001337B617A697B689A42F1DB7B6818463E
:1007FC001837BD4680BD80B483B000AF78604FF031
:10080C00FF3318460C37BD4680BC704780B483B0AC
:10081C0000AF786039603B684FF400525A60002397
:10082C0018460C37BD4680BC704780B483B000AF0F
:10083C007860012318460C37BD4680BC704780B4E5
:10084C0085B000AFF860B9607A60002318461437A1
:10085C00BD4680BC7047000080B586B000AF7860A4
:10086C00144A154BD31A7B617B693B61134B1B6894
:10087C00002B02D1114B124A1A60104B1A687B687C
:10088C0013443A699A4207D202F008FD03460C223F
:10089C001A604FF0FF3309E0084B1B68FB60074BF5
:1008AC001A687B681344054A1360FB6818461837AE
:1008BC00BD4680BD0050002000040000D001002087
:1008CC004803002080B400AF00BFBD4680BC704719
:1008DC00FFF7F8FF0B480C490C4A002302E0D458F0
:1008EC00C4500433C4188C42F9D3094A094C002370
:1008FC0001E013600432A242FBD302F0D5FCFFF7F7
:10090C0063FC704700000020680000201C3F0008BA
:10091C006800002044030020FEE7000080B500AF13
:10092C00084B1B68074A43F010031360032000F0C8
:10093C0057F90F2000F026F8FFF768FE0023184641
:10094C0080BD00BF0020024080B500AF094B4FF0C6
:10095C00FF321A61074B00221A61064B4FF0FF322F
:10096C00DA60044B0022DA6000F006F80023184627
:10097C0080BD00BF0010024080B400AF00BFBD4678
:10098C0080BC704780B582B000AF7860124B1A689B
:10099C00124B1B7819464FF47A73B3FBF1F3B2FB8D
:1009AC00F3F3184600F055F90346002B01D0012350
:1009BC000EE07B680F2B0AD8002279684FF0FF30CD
:1009CC0000F019F9064A7B681360002300E001234C
:1009DC0018460837BD4680BD0000002008000020E6
:1009EC000400002080B400AF054B1B781A46054B61
:1009FC001B681344034A136000BFBD4680BC70479C
:100A0C0008000020D401002080B400AF024B1B680A
:100A1C001846BD4680BC7047D401002080B485B018
:100A2C0000AF78607B6803F00703FB600C4BDB685E
:100A3C00BB60BA684FF6FF031340BB60FB681A0239
:100A4C00BB68134343F0BF6343F40033BB60044AF9
:100A5C00BB68D36000BF1437BD4680BC704700BF75
:100A6C0000ED00E080B400AF044BDB681B0A03F020
:100A7C0007031846BD4680BC704700BF00ED00E080
:100A8C0080B483B000AF0346FB7197F90730002B9D
:100A9C000BDBFB7903F01F02064997F907305B0962
:100AAC00012000FA02F241F8232000BF0C37BD46AA
:100ABC0080BC704700E100E080B483B000AF034617
:100ACC003960FB7197F90730002B0ADB3B68DAB20F
:100ADC000C4997F907301201D2B20B4483F800236A
:100AEC000AE03B68DAB20849FB7903F00F03043BD8
:100AFC001201D2B20B441A7600BF0C37BD4680BC33
:100B0C00704700BF00E100E000ED00E080B489B068
:100B1C0000AFF860B9607A60FB6803F00703FB6113
:100B2C00FB69C3F10703042B28BF0423BB61FB69DA
:100B3C000433062B02D9FB69033B00E000237B61E5
:100B4C004FF0FF32BB6902FA03F3DA43BB681A4079
:100B5C007B699A404FF0FF317B6901FA03F3D9436B
:100B6C007B680B40134318462437BD4680BC704746
:100B7C0080B400AFBFF34F8F00BF064BDB6803F4AC
:100B8C00E0620449044B1343CB60BFF34F8F00BFAB
:100B9C0000BFFDE700ED00E00400FA0580B582B06F
:100BAC0000AF78607B68013BB3F1807F01D30123F8
:100BBC000FE00A4A7B68013B53600F214FF0FF3076
:100BCC00FFF77AFF054B00229A60044B07221A604C
:100BDC00002318460837BD4680BD00BF10E000E07A
:100BEC0080B582B000AF78607868FFF717FF00BF60
:100BFC000837BD4680BD80B586B000AF0346B960EE
:100C0C007A60FB7300237B61FFF72CFF78617A68B5
:100C1C00B9687869FFF77AFF024697F90F301146E9
:100C2C001846FFF749FF00BF1837BD4680BD80B599
:100C3C0082B000AF0346FB7197F907301846FFF7F7
:100C4C001FFF00BF0837BD4680BD80B500AFFFF762
:100C5C008FFF80B582B000AF78607868FFF79EFF99
:100C6C00034618460837BD4680BD80B485B000AF3A
:100C7C0078600023FB737B6893F82130DBB2022B86
:100C8C0008D07B6804229A637B68002283F82020BA
:100C9C00012320E07B681B681A687B681B6822F0C4
:100CAC000E021A607B681B681A687B681B6822F04E
:100CBC0001021A607B681A6C7B68DB6B012101FAFC
:100CCC0002F25A607B68012283F821207B680022A3
:100CDC0083F82020FB7B18461437BD4680BC704738
:100CEC0080B584B000AF78600023FB737B6893F809
:100CFC002130DBB2022B05D07B6804229A630123DE
:100D0C00FB7351E07B681B681A687B681B6822F0D8
:100D1C000E021A607B681B681A687B681B6822F0DD
:100D2C0001021A607B681B68224A934229D07B68B7
:100D3C001B68214A934222D07B681B681F4A93424E
:100D4C001AD07B681B681E4A934212D07B681B68C2
:100D5C001C4A93420AD07B681B681B4A934202D1FF
:100D6C004FF480130EE04FF080730BE04FF48033A0
:100D7C0008E04FF4805305E04FF4807302E0102339
:100D8C0000E00123114A53607B68012283F8212083
:100D9C007B68002283F820207B685B6B002B03D0E0
:100DAC007B685B6B78689847FB7B18461037BD46B1
:100DBC0080BD00BF080002401C0002403000024011
:100DCC0044000240580002406C0002400000024007
:100DDC0080B483B000AF78607B689B6B18460C378F
:100DEC00BD4680BC70470000F0B587B000AFF8601E
:100DFC00B960C7E900230123FB750023BB750023F1
:100E0C007B752F4B1B7E012B01D1022354E02C4B05
:100E1C0001221A764CF2503000F0A8F80346FB750C
:100E2C00FB7D002B44D1FB68012B02D101237B7588
:100E3C0007E0FB68022B02D102237B7501E004233F
:100E4C007B750023BB752DE0BB7D5A00BB6802EBA4
:100E5C00030CBB7D1901D7E90023C1F12006A1F1D8
:100E6C00200022FA01F403FA06F6344323FA00F0C8
:100E7C00044323FA01F5A3B21946604600F05AF870
:100E8C004CF2503000F072F80346FB750D4B1B69A9
:100E9C000C4A23F001031361FB7D002B07D1BB7DB2
:100EAC000133BB75BA7D7B7D9A42CDD300E000BF88
:100EBC00034B00221A76FB7D18461C37BD46F0BD4D
:100ECC00D80100200020024080B483B000AF002382
:100EDC00FB710D4B1B6903F08003002B0DD00A4BEB
:100EEC000A4A5A60084B0A4A5A60074B1B6903F0BE
:100EFC008003002B01D00123FB71FB7918460C37C2
:100F0C00BD4680BC704700BF0020024023016745EE
:100F1C00AB89EFCD80B400AF054B1B69044A43F09D
:100F2C008003136100231846BD4680BC704700BF88
:100F3C000020024080B483B000AF78600B467B8009
:100F4C00084B0022DA61084B1B69074A43F0010386
:100F5C0013617B687A881A8000BF0C37BD4680BC51
:100F6C00704700BFD80100200020024080B584B03B
:100F7C0000AF7860FFF748FDF86010E07B68B3F1D4
:100F8C00FF3F0CD07B68002B07D0FFF73DFD0246DE
:100F9C00FB68D31A7A689A4201D2032325E0154BD9
:100FAC00DB6803F00103002BE8D1124BDB6803F084
:100FBC002003002B02D00F4B2022DA600D4BDB6894
:100FCC0003F01003002B0BD10A4BDB6903F0010378
:100FDC00002B05D1074BDB6803F00403002B03D077
:100FEC0000F00AF8012300E0002318461037BD4634
:100FFC0080BD00BF0020024080B483B000AF00234E
:10100C007B60234BDB6803F01003002B09D0214BD2
:10101C00DB6943F002031F4AD3617B6843F0100382
:10102C007B601B4BDB6803F00403002B09D0194BCE
:10103C00DB6943F00103174AD3617B6843F0040377
:10104C007B60134BDB6903F00103002B0BD0114BBE
:10105C00DB6943F004030F4AD3610D4BDB690C4A87
:10106C0023F00103D3617B6840F20112934206D155
:10107C00074BDB69064A23F00103D36102E0044A03
:10108C007B68D36000BF0C37BD4680BC704700BF87
:10109C0000200240D801002080B584B000AF7860F9
:1010AC0039600123FB730023BB602F4B1B7E012B8C
:1010BC0001D1022353E02C4B01221A767B681B686A
:1010CC00022B16D14CF25030FFF750FF0346002B89
:1010DC0041D1012000F04CF84CF25030FFF746FFA4
:1010EC000346FB73214B1B69204A23F00403136155
:1010FC0031E04CF25030FFF739FF0346002B2AD178
:10110C003B684FF0FF321A607B689B68BB6019E04C
:10111C00B86800F049F84CF25030FFF727FF03464F
:10112C00FB73124B1B69114A23F002031361FB7B07
:10113C00002B03D03B68BA681A600CE0BB6803F55F
:10114C008063BB607B68DB689A027B689B68134496
:10115C00BA689A42DCD3044B00221A76FB7B184601
:10116C001037BD4680BD00BFD801002000200240D2
:10117C0080B483B000AF7860094B0022DA61094B70
:10118C001B69084A43F004031361064B1B69054AAB
:10119C0043F04003136100BF0C37BD4680BC704761
:1011AC00D80100200020024080B483B000AF7860EA
:1011BC000B4B0022DA610B4B1B690A4A43F002030A
:1011CC001361084A7B685361064B1B69054A43F05F
:1011DC004003136100BF0C37BD4680BC704700BF95
:1011EC00D80100200020024080B48BB000AF7860A2
:1011FC00396000237B6200233B6269E101227B6A38
:10120C0002FA03F3FB613B681B68FA691340BB618C
:10121C00BA69FB699A4240F058813B685B689A4A0C
:10122C0093425ED0984A934275D8984A934258D0CC
:10123C00964A93426FD8964A934252D0944A93421C
:10124C0069D8944A93424CD0924A934263D8924ABA
:10125C00934246D0904A93425DD8122B2AD8122B37
:10126C0059D801A252F823F0EF120008C912000855
:10127C00DB1200081D1300082313000823130008B9
:10128C00231300082313000823130008231300085A
:10129C00231300082313000823130008231300084A
:1012AC00231300082313000823130008D11200088D
:1012BC00E5120008794A934213D02CE03B68DB68B6
:1012CC003B6229E03B68DB6804333B6224E03B680B
:1012DC00DB6808333B621FE03B68DB680C333B6226
:1012EC001AE03B689B68002B02D104233B6213E09D
:1012FC003B689B68012B05D108233B627B68FA692C
:10130C001A6109E008233B627B68FA695A6103E0C1
:10131C0000233B6200E000BFBB69FF2B01D87B6858
:10132C0001E07B6804337B61BB69FF2B02D87B6ACD
:10133C009B0002E07B6A083B9B003B617B691A685F
:10134C000F213B6901FA03F3DB431A40396A3B690D
:10135C0001FA03F31A437B691A603B685B6803F07C
:10136C008053002B00F0B1804D4B9B694C4A43F0ED
:10137C00010393614A4B9B6903F00103BB60BB689B
:10138C00484A7B6A9B08023352F82330FB607B6A25
:10139C0003F003039B000F2202FA03F3DB43FA680A
:1013AC001340FB607B68404A934213D07B683F4AF2
:1013BC0093420DD07B683E4A934207D07B683D4AEE
:1013CC00934201D1032306E0042304E0022302E04C
:1013DC00012300E000237A6A02F00302920093409A
:1013EC00FA681343FB602F497B6A9B080233FA6847
:1013FC0041F823203B685B6803F48013002B06D074
:10140C002D4B9A682C49BB6913438B6006E02A4B21
:10141C009A68BB69DB43284913408B603B685B6867
:10142C0003F40013002B06D0234BDA682249BB6966
:10143C001343CB6006E0204BDA68BB69DB431E49E3
:10144C001340CB603B685B6803F40033002B06D081
:10145C00194B5A681849BB6913434B6006E0164B8D
:10146C005A68BB69DB43144913404B603B685B68AB
:10147C0003F48033002B21D00F4B1A680E49BB6943
:10148C0013430B6021E000BF00003210000031104C
:10149C00000022100000211000001210000011109A
:1014AC00001002400000014000080140000C014007
:1014BC000010014000140140000401400B4B1A685D
:1014CC00BB69DB43094913400B607B6A01337B62C8
:1014DC003B681A687B6A22FA03F3002B7FF48EAE0A
:1014EC0000BF00BF2C37BD4680BC704700040140D4
:1014FC0080B485B000AF78600B467B807B689A68BF
:10150C007B881340002B02D00123FB7301E00023E6
:10151C00FB73FB7B18461437BD4680BC704780B408
:10152C0083B000AF78600B467B8013467B707B7872
:10153C00002B03D07A887B681A6103E07B881A043D
:10154C007B681A6100BF0C37BD4680BC7047000039
:10155C0080B582B000AFFFF757FA7860454B1B6837
:10156C00444A43F00103136008E0FFF74DFA0246CA
:10157C007B68D31A022B01D9032377E03D4B1B6800
:10158C0003F00203002BF0D03A4B1B6823F0F80356
:10159C00384A43F080031360FFF736FA7860354B16
:1015AC0000225A600AE0FFF72FFA02467B68D31A32
:1015BC0041F28832934201D9032357E02D4B5B68EB
:1015CC0003F00C03002BEED12B4B2C4A1A602C4B46
:1015DC001B681846FFF7D6F90346002B01D00123F0
:1015EC0044E0FFF711FA7860224B1B68214A23F084
:1015FC008073136008E0FFF707FA02467B68D31A82
:10160C00022B01D9032331E01A4B1B6803F0007342
:10161C00002BF0D1174B00225A60FFF7F5F97860D8
:10162C00144B1B68134A23F41023136008E0FFF7D4
:10163C00EBF902467B68D31A642B01D9032315E01E
:10164C000C4B1B6803F40033002BF0D1094B1B68C7
:10165C00084A23F480231360064B5B6A054A43F067
:10166C0080735362034B00229A600023184608379C
:10167C00BD4680BD001002400000002000127A0020
:10168C000400002080B586B000AF78607B68002B2A
:10169C0001D1012372E27B681B6803F00103002B6C
:1016AC0000F08780924B5B6803F00C03042B0CD08A
:1016BC008F4B5B6803F00C03082B12D18C4B5B68CF
:1016CC0003F48033B3F5803F0BD1894B1B6803F4D3
:1016DC000033002B6CD07B685B68002B68D1012336
:1016EC004CE27B685B68B3F5803F06D1804B1B688E
:1016FC007F4A43F4803313602EE07B685B68002BD9
:10170C000CD17B4B1B687A4A23F480331360784BE3
:10171C001B68774A23F4802313601DE07B685B68A9
:10172C00B3F5A02F0CD1724B1B68714A43F4802384
:10173C0013606F4B1B686E4A43F4803313600BE0ED
:10174C006B4B1B686A4A23F480331360684B1B682D
:10175C00674A23F4802313607B685B68002B13D0EB
:10176C00FFF752F9386108E0FFF74EF902463B6982
:10177C00D31A642B01D9032300E25D4B1B6803F4DD
:10178C000033002BF0D014E0FFF73EF9386108E08D
:10179C00FFF73AF902463B69D31A642B01D90323AC
:1017AC00ECE1534B1B6803F40033002BF0D100E049
:1017BC0000BF7B681B6803F00203002B63D04C4B0B
:1017CC005B6803F00C03002B0BD0494B5B6803F0F8
:1017DC000C03082B1CD1464B5B6803F48033002BA5
:1017EC0016D1434B1B6803F00203002B05D07B681A
:1017FC001B69012B01D00123C0E13D4B1B6823F079
:10180C00F8027B685B69DB00394913430B603AE0F3
:10181C007B681B69002B20D0364B01221A60FFF726
:10182C00F3F8386108E0FFF7EFF802463B69D31A8A
:10183C00022B01D90323A1E12D4B1B6803F00203FA
:10184C00002BF0D02A4B1B6823F0F8027B685B69F5
:10185C00DB00274913430B6015E0264B00221A606E
:10186C00FFF7D2F8386108E0FFF7CEF802463B6983
:10187C00D31A022B01D9032380E11D4B1B6803F003
:10188C000203002BF0D17B681B6803F00803002BCC
:10189C003AD07B689B69002B19D0174B01221A6038
:1018AC00FFF7B2F8386108E0FFF7AEF802463B6983
:1018BC00D31A022B01D9032360E10D4B5B6A03F0B1
:1018CC000203002BF0D0012000F0CEFA1CE00A4BF2
:1018DC0000221A60FFF798F838610FE0FFF794F8D0
:1018EC0002463B69D31A022B08D9032346E100BFF9
:1018FC00001002400000424280044242924B5B6A5C
:10190C0003F00203002BE9D17B681B6803F004038E
:10191C00002B00F0A6800023FB758B4BDB6903F0DA
:10192C008053002B0DD1884BDB69874A43F08053E1
:10193C00D361854BDB6903F08053BB60BB6801232B
:10194C00FB75824B1B6803F48073002B18D17F4B03
:10195C001B687E4A43F480731360FFF755F83861B7
:10196C0008E0FFF751F802463B69D31A642B01D902
:10197C00032303E1754B1B6803F48073002BF0D039
:10198C007B68DB68012B06D16F4B1B6A6E4A43F0F8
:10199C00010313622DE07B68DB68002B0CD16A4BD2
:1019AC001B6A694A23F001031362674B1B6A664A80
:1019BC0023F0040313621CE07B68DB68052B0CD15D
:1019CC00614B1B6A604A43F0040313625E4B1B6A53
:1019DC005D4A43F0010313620BE05B4B1B6A5A4AEE
:1019EC0023F001031362584B1B6A574A23F004037C
:1019FC0013627B68DB68002B15D0FFF705F83861A4
:101A0C000AE0FFF701F802463B69D31A41F288322B
:101A1C00934201D90323B1E04B4B1B6A03F0020341
:101A2C00002BEED014E0FEF7EFFF38610AE0FEF772
:101A3C00EBFF02463B69D31A41F28832934201D93B
:101A4C0003239BE0404B1B6A03F00203002BEED1F7
:101A5C00FB7D012B05D13C4BDB693B4A23F08053CA
:101A6C00D3617B68DB69002B00F08780364B5B68A9
:101A7C0003F00C03082B61D07B68DB69022B46D189
:101A8C00334B00221A60FEF7BFFF386108E0FEF707
:101A9C00BBFF02463B69D31A022B01D903236DE02D
:101AAC00294B1B6803F00073002BF0D17B681B6A79
:101ABC00B3F5803F08D1244B5B6823F400327B687C
:101ACC009B68214913434B601F4B5B6823F47412D2
:101ADC007B68196A7B685B6A0B431B4913434B6039
:101AEC001B4B01221A60FEF78FFF386108E0FEF7EE
:101AFC008BFF02463B69D31A022B01D903233DE02D
:101B0C00114B1B6803F00073002BF0D035E0104B29
:101B1C0000221A60FEF778FF386108E0FEF774FFC8
:101B2C0002463B69D31A022B01D9032326E0064B4C
:101B3C001B6803F00073002BF0D11EE07B68DB699F
:101B4C00012B07D1012319E0001002400070004066
:101B5C00600042420B4B5B68FB60FB6803F4803215
:101B6C007B681B6A9A4206D1FB6803F470127B688F
:101B7C005B6A9A4201D0012300E000231846183713
:101B8C00BD4680BD0010024080B584B000AF7860C7
:101B9C0039607B68002B01D10123D0E06A4B1B68B4
:101BAC0003F007033A689A4210D9674B1B6823F07D
:101BBC00070265493B6813430B60634B1B6803F0DA
:101BCC0007033A689A4201D00123B8E07B681B688E
:101BDC0003F00203002B20D07B681B6803F0040386
:101BEC00002B05D0594B5B68584A43F4E0635360B3
:101BFC007B681B6803F00803002B05D0534B5B6814
:101C0C00524A43F460535360504B5B6823F0F0022C
:101C1C007B689B684D4913434B607B681B6803F0E2
:101C2C000103002B40D07B685B68012B07D1474B2D
:101C3C001B6803F40033002B15D101237FE07B6874
:101C4C005B68022B07D1414B1B6803F00073002B20
:101C5C0009D1012373E03D4B1B6803F00203002BF9
:101C6C0001D101236BE0394B5B6823F003027B68E5
:101C7C005B68364913434B60FEF7C6FEF8600AE01A
:101C8C00FEF7C2FE0246FB68D31A41F28832934239
:101C9C0001D9032353E02D4B5B6803F00C027B68E6
:101CAC005B689B009A42EBD1274B1B6803F0070340
:101CBC003A689A4210D2244B1B6823F0070222493F
:101CCC003B6813430B60204B1B6803F007033A6817
:101CDC009A4201D0012332E07B681B6803F00403B5
:101CEC00002B08D0194B5B6823F4E0627B68DB683F
:101CFC00164913434B607B681B6803F00803002BE9
:101D0C0009D0124B5B6823F460527B681B69DB00C3
:101D1C000E4913434B6000F021F802460B4B5B68F5
:101D2C001B0903F00F030A49CB5C22FA03F3094A9F
:101D3C001360094B1B681846FEF724FE0023184657
:101D4C001037BD4680BD00BF00200240001002408D
:101D5C00B43E0008000000200400002080B487B0CE
:101D6C0000AF0023FB600023BB6000237B610023DA
:101D7C007B6000233B611E4B5B68FB60FB6803F0E0
:101D8C000C03042B02D0082B03D027E0194B3B612A
:101D9C0027E0FB689B0C03F00F03174AD35C7B60B6
:101DAC00FB6803F48033002B10D0114B5B685B0C89
:101DBC0003F00103114AD35CBB607B680D4A03FB43
:101DCC0002F2BB68B2FBF3F37B6104E07B680C4A64
:101DDC0002FB03F37B617B693B6102E0054B3B61DA
:101DEC0000BF3B6918461C37BD4680BC704700BF1E
:101DFC000010024000127A00CC3E0008DC3E0008C5
:101E0C0000093D0080B400AF024B1B681846BD466C
:101E1C0080BC70470000002080B500AFFFF7F2FFD8
:101E2C000246054B5B681B0A03F007030349CB5CB6
:101E3C0022FA03F3184680BD00100240C43E00088D
:101E4C0080B500AFFFF7DEFF0246054B5B68DB0A8F
:101E5C0003F007030349CB5C22FA03F3184680BD59
:101E6C0000100240C43E000880B485B000AF78601A
:101E7C000A4B1B680A4AA2FB03235B0A7A6802FB23
:101E8C0003F3FB6000BFFB685A1EFA60002BF9D10C
:101E9C0000BF00BF1437BD4680BC70470000002057
:101EAC00D34D621080B582B000AF78607B68002B98
:101EBC0001D1012342E07B6893F84130DBB2002B67
:101ECC0006D17B68002283F840207868FEF7D0FBAF
:101EDC007B68242283F841207B681B68DA687B6866
:101EEC001B6822F40052DA60786800F0F1FE7B681F
:101EFC001B681A697B681B6822F490421A617B6824
:101F0C001B685A697B681B6822F02A025A617B683D
:101F1C001B68DA687B681B6842F40052DA607B68E5
:101F2C0000225A647B68202283F841207B6820229F
:101F3C0083F842207B6800225A6300231846083736
:101F4C00BD4680BD80B58AB002AFF860B9603B6019
:101F5C001346FB8000237B61FB6893F84130DBB2B6
:101F6C00202B75D1BB68002B02D0FB88002B01D134
:101F7C0001236EE0FB6800225A64FB68212283F87F
:101F8C004120FEF741FD7861FB68FA889A84FB6872
:101F9C00FA88DA84FB689B68B3F5805F08D1FB682C
:101FAC001B69002B04D10023FB61BB68BB6103E000
:101FBC00BB68FB610023BB612EE03B6800937B692F
:101FCC0000228021F86800F056FC0346002B05D057
:101FDC00FB68202283F8412003233AE0FB69002BA5
:101FEC000BD1BB691B881A46FB681B68C2F308023D
:101FFC005A60BB690233BB6107E0FB691A78FB6866
:10200C001B685A60FB690133FB61FB68DB8C9BB27C
:10201C00013B9AB2FB68DA84FB68DB8C9BB2002B29
:10202C00CBD13B6800937B6900224021F86800F01B
:10203C0022FC0346002B05D0FB68202283F84120AC
:10204C00032306E0FB68202283F84120002300E0F4
:10205C00022318462037BD4680BD80B58AB002AF3A
:10206C00F860B9603B601346FB8000237B61FB6822
:10207C0093F84230DBB2202B40F08180BB68002B00
:10208C0002D0FB88002B01D1012379E0FB680022F0
:10209C005A64FB68222283F84220FB6800221A63F0
:1020AC00FEF7B2FC7861FB68FA889A85FB68FA88BF
:1020BC00DA85FB689B68B3F5805F08D1FB681B6908
:1020CC00002B04D10023FB61BB68BB6103E0BB6840
:1020DC00FB610023BB6147E03B6800937B690022F6
:1020EC002021F86800F0C7FB0346002B05D0FB68E5
:1020FC00202283F84220032342E0FB69002B0CD101
:10210C00FB681B685B689BB2C3F308039AB2BB699C
:10211C001A80BB690233BB611FE0FB689B68B3F597
:10212C00805F07D0FB689B68002B0AD1FB681B699A
:10213C00002B06D1FB681B685B68DAB2FB691A706E
:10214C0008E0FB681B685B68DBB203F07F03DAB264
:10215C00FB691A70FB690133FB61FB68DB8D9BB279
:10216C00013B9AB2FB68DA85FB68DB8D9BB2002BD6
:10217C00B2D1FB68202283F84220002300E0022326
:10218C0018462037BD4680BD80B584B000AFF860DE
:10219C00B9601346FB80FB6893F84230DBB2202B0E
:1021AC0012D1BB68002B02D0FB88002B01D101237C
:1021BC000BE0FB6800221A63FB881A46B968F868C2
:1021CC0000F0B2FB034600E0022318461037BD4670
:1021DC0080BD80B59AB000AF78607B681B680C330B
:1021EC00BB64BB6C53E8003F7B647B6C23F4907343
:1021FC007B667B681B680C337A6E7A653B65396D40
:10220C007A6D41E80023FB64FB6C002BE5D17B6805
:10221C001B6814337B637B6B53E8003F3B633B6B66
:10222C0023F001033B667B681B6814333A6E3A64F7
:10223C00FB63F96B3A6C41E80023BB63BB6B002B6F
:10224C00E5D17B681B6B012B19D17B681B680C33A8
:10225C003B623B6A53E8003FFB61FB6923F01003D0
:10226C00FB657B681B680C33FA6DFA62BB62B96A5A
:10227C00FA6A41E800237B627B6A002BE5D17B681C
:10228C001B685B6903F04003002B36D07B681B682E
:10229C001433FB60FB6853E8003FBB60BB6823F062
:1022AC004003BB657B681B681433BA6DBA617B61F4
:1022BC007969BA6941E800233B613B69002BE5D1A0
:1022CC007B68DB6B002B18D07B68DB6B00225A63BE
:1022DC007B68DB6B1846FEF7C8FC0346002B0CD062
:1022EC007B68DB6B1846FEF773FD0346202B04D18D
:1022FC007B6810225A6403230AE07B680022DA858B
:10230C007B68202283F842207B6800221A6300231A
:10231C0018466837BD4680BD80B5BAB000AF78604E
:10232C007B681B681B68C7F8E4307B681B68DB683C
:10233C00C7F8E0307B681B685B69C7F8DC300023AA
:10234C00C7F8D8300023C7F8D430D7F8E43003F0FE
:10235C000F03C7F8D830D7F8D830002B0FD1D7F8E7
:10236C00E43003F02003002B09D0D7F8E03003F061
:10237C002003002B03D0786800F0ECFB5BE2D7F86D
:10238C00D830002B00F0DE80D7F8DC3003F00103EE
:10239C00002B06D1D7F8E03003F49073002B00F03B
:1023AC00D180D7F8E43003F00103002B0BD0D7F821
:1023BC00E03003F48073002B05D07B685B6C43F03A
:1023CC0001027B685A64D7F8E43003F00403002B55
:1023DC000BD0D7F8DC3003F00103002B05D07B6861
:1023EC005B6C43F002027B685A64D7F8E43003F06C
:1023FC000203002B0BD0D7F8DC3003F00103002BC9
:10240C0005D07B685B6C43F004027B685A64D7F898
:10241C00E43003F00803002B11D0D7F8E03003F0C0
:10242C002003002B05D1D7F8DC3003F00103002B7F
:10243C0005D07B685B6C43F008027B685A647B6850
:10244C005B6C002B00F0F281D7F8E43003F0200332
:10245C00002B08D0D7F8E03003F02003002B02D07B
:10246C00786800F077FB7B681B685B6903F04003BE
:10247C00002B14BF01230023DBB2C7F8D4307B68D8
:10248C005B6C03F00803002B03D1D7F8D430002B7E
:10249C004FD0786800F081FA7B681B685B6903F0A9
:1024AC004003002B41D07B681B681433C7F89C3069
:1024BC00D7F89C3053E8003FC7F89830D7F89830DD
:1024CC0023F04003C7F8D0307B681B681433D7F86F
:1024DC00D020C7F8A820C7F8A430D7F8A410D7F894
:1024EC00A82041E80023C7F8A030D7F8A030002B73
:1024FC00D9D17B68DB6B002B13D07B68DB6B7E4AFE
:10250C005A637B68DB6B1846FEF7EAFB0346002B2D
:10251C0016D07B68DB6B5B6B7A68D26B1046984786
:10252C000EE0786800F093F90AE0786800F08FF913
:10253C0006E0786800F08BF97B6800225A6475E13C
:10254C0000BF73E17B681B6B012B40F04F81D7F808
:10255C00E43003F01003002B00F04881D7F8E03092
:10256C0003F01003002B00F041810023BB607B685B
:10257C001B681B68BB607B681B685B68BB60BB68C7
:10258C007B681B685B6903F04003002B00F0B6808E
:10259C007B68DB6B1B685B68A7F8BE30B7F8BE3096
:1025AC00002B00F045817B689B8DB7F8BE209A42CA
:1025BC0080F03E817B68B7F8BE20DA857B68DB6BE8
:1025CC009B69202B00F088807B681B680C33C7F854
:1025DC008830D7F8883053E8003FC7F88430D7F8F4
:1025EC00843023F48073C7F8B8307B681B680C33D5
:1025FC00D7F8B820C7F89420C7F89030D7F89010C7
:10260C00D7F8942041E80023C7F88C30D7F88C30E9
:10261C00002BD9D17B681B6814337B677B6F53E825
:10262C00003F3B673B6F23F00103C7F8B4307B6876
:10263C001B681433D7F8B420C7F88020FB67F96FF8
:10264C00D7F8802041E80023BB67BB6F002BE1D19A
:10265C007B681B6814333B663B6E53E8003FFB659D
:10266C00FB6D23F04003C7F8B0307B681B68143354
:10267C00D7F8B020FA66BB66B96EFA6E41E8002353
:10268C007B667B6E002BE3D17B68202283F8422093
:10269C007B6800221A637B681B680C33FB64FB6C41
:1026AC0053E8003FBB64BB6C23F01003C7F8AC309D
:1026BC007B681B680C33D7F8AC20BA657B65796DE9
:1026CC00BA6D41E800233B653B6D002BE3D17B6881
:1026DC00DB6B1846FEF7C9FA7B6802225A637B68EB
:1026EC009A8D7B68DB8D9BB2D31A9BB219467868A6
:1026FC0000F0B6F89CE000BF6B2A00087B689A8D4E
:10270C007B68DB8D9BB2D31AA7F8CE307B68DB8D50
:10271C009BB2002B00F08E80B7F8CE30002B00F06F
:10272C0089807B681B680C33BB63BB6B53E8003F31
:10273C007B637B6B23F49073C7F8C8307B681B6892
:10274C000C33D7F8C8207A643B64396C7A6C41E856
:10275C000023FB63FB6B002BE3D17B681B681433FA
:10276C007B627B6A53E8003F3B623B6A23F00103C8
:10277C00C7F8C4307B681B681433D7F8C4203A639D
:10278C00FB62F96A3A6B41E80023BB62BB6A002B1F
:10279C00E3D17B68202283F842207B6800221A63F5
:1027AC007B681B680C333B613B6953E8003FFB6063
:1027BC00FB6823F01003C7F8C0307B681B680C3330
:1027CC00D7F8C020FA61BB61B969FA6941E8002306
:1027DC007B617B69002BE3D17B6802225A63B7F8DB
:1027EC00CE301946786800F03BF823E0D7F8E43097
:1027FC0003F08003002B09D0D7F8E03003F08003FE
:10280C00002B03D0786800F03EF914E0D7F8E430E0
:10281C0003F04003002B0ED0D7F8E03003F0400358
:10282C00002B08D0786800F07DF904E000BF02E0CE
:10283C0000BF00E000BFE837BD4680BD80B483B068
:10284C0000AF786000BF0C37BD4680BC704780B4C9
:10285C0083B000AF786000BF0C37BD4680BC7047BA
:10286C0080B483B000AF78600B467B8000BF0C3720
:10287C00BD4680BC704780B586B000AFF860B960CB
:10288C003B601346FB713BE03B6AB3F1FF3F37D033
:10289C00FEF7BAF802463B68D31A3A6A9A4202D358
:1028AC003B6A002B01D103233AE0FB681B68DB6811
:1028BC0003F00403002B23D0BB68802B20D0BB6813
:1028CC00402B1DD0FB681B681B6803F00803082B0A
:1028DC0016D100237B61FB681B681B687B61FB685E
:1028EC001B685B687B617B69F86800F056F8FB68D5
:1028FC0008225A64FB68002283F8402001230FE071
:10290C00FB681B681A68BB681340BA689A420CBF14
:10291C0001230023DBB21A46FB799A42B4D0002380
:10292C0018461837BD4680BD80B485B000AFF8603E
:10293C00B9601346FB80FB68BA689A62FB68FA8838
:10294C009A85FB68FA88DA85FB6800225A64FB6872
:10295C00222283F84220FB681B69002B07D0FB68FE
:10296C001B68DA68FB681B6842F48072DA60FB68EB
:10297C001B685A69FB681B6842F001025A61FB68CC
:10298C001B68DA68FB681B6842F02002DA600023DF
:10299C0018461437BD4680BC704780B495B000AF64
:1029AC0078607B681B680C337B637B6B53E8003F60
:1029BC003B633B6B23F49073FB647B681B680C33A9
:1029CC00FA6C3A64FB63F96B3A6C41E80023BB6325
:1029DC00BB6B002BE5D17B681B6814333B623B6AF5
:1029EC0053E8003FFB61FB6923F00103BB647B6888
:1029FC001B681433BA6CFA62BB62B96AFA6A41E8B2
:102A0C0000237B627B6A002BE5D17B681B6B012B5F
:102A1C0019D17B681B680C33FB60FB6853E8003FE3
:102A2C00BB60BB6823F010037B647B681B680C33B2
:102A3C007A6CBA617B617969BA6941E800233B61C0
:102A4C003B69002BE5D17B68202283F842207B6810
:102A5C0000221A6300BF5437BD4680BC704780B556
:102A6C0084B000AF78607B685B6AFB60FB68002217
:102A7C00DA85FB680022DA84F868FFF7E8FE00BF0D
:102A8C001037BD4680BD80B485B000AF78607B68E0
:102A9C0093F84130DBB2212B3ED17B689B68B3F5B8
:102AAC00805F14D17B681B69002B10D17B681B6A7B
:102ABC00FB60FB681B881A467B681B68C2F3080224
:102ACC005A607B681B6A9A1C7B681A6208E07B68F8
:102ADC001B6A591C7A6811621A787B681B685A60E9
:102AEC007B68DB8C9BB2013B9BB27A681946D18424
:102AFC00002B0FD17B681B68DA687B681B6822F09F
:102B0C008002DA607B681B68DA687B681B6842F0BD
:102B1C004002DA60002300E0022318461437BD4659
:102B2C0080BC704780B582B000AF78607B681B6852
:102B3C00DA687B681B6822F04002DA607B6820222E
:102B4C0083F841207868FFF779FE00231846083790
:102B5C00BD4680BD80B58CB000AF78607B6893F8C3
:102B6C004230DBB2222B40F0AE807B689B68B3F521
:102B7C00805F17D17B681B69002B13D10023FB628C
:102B8C007B689B6ABB627B681B685B689BB2C3F308
:102B9C0008039AB2BB6A1A807B689B6A9A1C7B6892
:102BAC009A6226E07B689B6AFB620023BB627B68AF
:102BBC009B68B3F5805F07D07B689B68002B0AD1BC
:102BCC007B681B69002B06D17B681B685B68DAB2DB
:102BDC00FB6A1A7008E07B681B685B68DBB203F069
:102BEC007F03DAB2FB6A1A707B689B6A5A1C7B689B
:102BFC009A627B68DB8D9BB2013B9BB27A6819466B
:102C0C00D185002B5DD17B681B68DA687B681B68FB
:102C1C0022F02002DA607B681B68DA687B681B682C
:102C2C0022F48072DA607B681B685A697B681B68C7
:102C3C0022F001025A617B68202283F842207B68D3
:102C4C0000225A637B681B6B012B35D17B680022F9
:102C5C001A637B681B680C337B617B6953E8003F0C
:102C6C003B613B6923F010037B627B681B680C3370
:102C7C007A6A3A62FB61F9693A6A41E80023BB61FE
:102C8C00BB69002BE5D17B681B681B6803F0100344
:102C9C00102B0AD10023FB607B681B681B68FB6050
:102CAC007B681B685B68FB60FB687B689B8D1946C7
:102CBC007868FFF7D5FD02E07868FDF78BFC002300
:102CCC0002E0002300E0022318463037BD4680BDE9
:102CDC0080B584B000AF78607B681B681B6923F4F7
:102CEC0040517B68DA687B681B680A431A617B6811
:102CFC009A687B681B691A437B685B691343BB60EA
:102D0C007B681B68DB6823F4B05323F00C037A68F0
:102D1C001268B9680B43D3607B681B685B6923F44A
:102D2C0040717B689A697B681B680A435A617B68AF
:102D3C001B682C4A934203D1FFF782F8F86002E03B
:102D4C00FFF76AF8F860FA6813469B0013449A0080
:102D5C001A447B685B689B00B2FBF3F3224AA2FB2C
:102D6C0003235B091901FA6813469B0013449A006C
:102D7C001A447B685B689B00B2FBF3F21A4BA3FB13
:102D8C0002035B09642000FB03F3D31A1B013233EB
:102D9C00154AA2FB03235B0903F0F0031944FA68FC
:102DAC0013469B0013449A001A447B685B689B0093
:102DBC00B2FBF3F20C4BA3FB02035B09642000FB98
:102DCC0003F3D31A1B013233074AA2FB03235B091B
:102DDC0003F00F027B681B680A449A6000BF10372F
:102DEC00BD4680BD003801401F85EB51002310B556
:102DFC000446C0E90033C0E9043383608181436633
:102E0C00C2818361194608225C3000F0F9F90D4B40
:102E1C00246263620C4BA3620C4BE3620C4B236386
:102E2C000C4B9C4206D003F16802944202D0D03382
:102E3C009C4205D104F15800BDE8104000F058BA8E
:102E4C0010BD00BF5D3000087F300008B7300008AF
:102E5C00DB300008F8010020024A0349034800F067
:102E6C0069B800BF0C000020913B00081C0000203A
:102E7C0041680C4B10B59942044601D000F082FE1B
:102E8C00A168094B994202D0204600F07BFEE16814
:102E9C00064B994204D02046BDE8104000F072BEAB
:102EAC0010BD00BFF801002060020020C802002005
:102EBC0010B50B4B0B4C0C4A20461A600421002217
:102ECC00FFF794FF04F1680001220921FFF78EFF40
:102EDC0004F1D0000222BDE810401221FFF786BF9A
:102EEC0030030020F8010020652E0008014800F096
:102EFC0000BA00BF39030020014800F0FBB900BF45
:102F0C003903002010B50446FFF7F0FF236A1BB10C
:102F1C00BDE81040FFF7F0BF044B2362044B1B6865
:102F2C00002BF5D1FFF7C4FFF2E700BF7D2E0008A0
:102F3C00300300202DE9F843074688461446002646
:102F4C00D4E90195B9F1010905D52468002CF7D114
:102F5C003046BDE8F883AB89012B07D9B5F90E30A3
:102F6C00013303D029463846C04706436835E9E7A4
:102F7C000FB407B5064904AB086853F8042B8168F5
:102F8C00019300F0D7FA03B05DF804EB04B070477E
:102F9C0018000020036A70B505460E4684680BB90C
:102FAC00FFF7B0FF636EDB0705D4A389980502D445
:102FBC00A06D00F09EF9A389190702D52369002B97
:102FCC0035D12146284600F0C5F880B34FF0FF35C7
:102FDC00636EDA0705D4A3899B0502D4A06D00F0BB
:102FEC0089F9284670BD002B04DAA2699A4217DCD5
:102FFC000A2915D023685A1C22601970A36816F888
:10300C00011F013BA3600029EDD1002B11DA2246F0
:10301C000A21284600F05FF80130D7D00A25D7E7FF
:10302C002246284600F057F80130E7D1CEE7013EA2
:10303C00E4E723685A1C22600A221A70EEE70000AB
:10304C00024B01461868FFF7A5BF00BF180000200F
:10305C0010B50C46B1F90E1000F0FCF80028ABBF0F
:10306C00636DA3891B1823F48053ACBF6365A381E4
:10307C0010BD2DE9F0411F468B890546DB050C463A
:10308C00164605D502230022B1F90E1000F0D0F837
:10309C00A389324623F48053A38128463B46B4F9D6
:1030AC000E10BDE8F04100F0E7B810B50C46B1F9D0
:1030BC000E1000F0BDF8431CA38915BF606523F406
:1030CC00805343F48053A38118BFA38110BDB1F981
:1030DC000E1000F09DB8F8B50E461446054618B112
:1030EC00036A0BB9FFF70EFFA369A360A3891A0744
:1030FC0001D5236943B92146284600F02BF818B1B5
:10310C004FF0FF373846F8BD23682269F6B2981A9B
:10311C0063693746834205DC2146284600F032FDC0
:10312C000028EDD1A368013BA36023685A1C2260E0
:10313C001E706269431C9A4204D0A389DB07E1D557
:10314C000A2EDFD12146284600F01CFD0028D9D0DC
:10315C00D6E7000038B5294B054618680C4618B15F
:10316C00036A0BB9FFF7CEFEB4F90C30190722D461
:10317C00DA0607D409222A6043F040034FF0FF30EF
:10318C00A38133E0580712D5616B41B104F14403BC
:10319C00994202D0284600F0AFF800236363A3895C
:1031AC0023F02403A3810023636023692360A38994
:1031BC0043F00803A38123694BB9A38903F420735B
:1031CC00B3F5007F03D02146284600F028FDB4F962
:1031DC000C3013F001020AD00022A2606269524244
:1031EC00A261226942B913F08000C5D138BD99079C
:1031FC0058BF6269A260F4E70020F7E718000020CE
:10320C0003460244934200D1704703F8011BF9E7CF
:10321C0038B50023054D044608462B60FDF7EBFA44
:10322C00431C02D12B6803B1236038BD340300204A
:10323C0038B50446084611460022054D2A601A4648
:10324C00FDF7FDFA431C02D12B6803B1236038BD96
:10325C003403002038B50446084611460022054DBB
:10326C002A601A46FDF78EFA431C02D12B6803B173
:10327C00236038BD3403002038B504460846114697
:10328C000022054D2A601A46FDF799FA431C02D11B
:10329C002B6803B1236038BD34030020014B186840
:1032AC00704700BF1800002070B500260C4D0D4C67
:1032BC00641BA410A64209D100F02EFD00260A4D75
:1032CC000A4C641BA410A64205D170BD55F8043BF2
:1032DC0098470136EEE755F8043B98470136F2E77C
:1032EC00143F0008143F0008143F0008183F000862
:1032FC00704770477047000038B50546002940D02C
:10330C0051F8043C0C1F002BB8BFE41800F0DEF899
:10331C001C4A136833B9636014602846BDE8384012
:10332C0000F0DAB8A34208D9206821188B4201BFFB
:10333C0019685B6809182160EDE71A465B680BB1E8
:10334C00A342FAD911685018A0420BD1206801444D
:10335C00501883421160E0D118685B680844106013
:10336C005360DAE702D90C232B60D6E720682118CA
:10337C008B4201BF19685B68091821606360546057
:10338C00CBE738BD4003002070B50F4E0C463168BA
:10339C00054611B900F0A2FC30602146284600F029
:1033AC009DFC431C03D14FF0FF34204670BDC41C60
:1033BC0024F00304A042F8D0211A284600F08EFC19
:1033CC000130F2D1EFE700BF3C0300202DE9F843B8
:1033DC00CD1C25F0030508350C2D38BF0C25002D10
:1033EC00064601DBA94204D90C2333600020BDE85A
:1033FC00F883DFF8D48000F069F8D8F800301C4668
:10340C0044BB29463046FFF7BFFF431C044658D146
:10341C00D8F800402746002F43D1002C4BD023680E
:10342C003946304604EB030900F058FC814542D183
:10343C00216830466D1A2946FFF7A6FF01303AD0B5
:10344C0023682B442360D8F800305A6862BBC8F854
:10345C0000700FE02268521B20D40B2A17D9611977
:10346C00A342256018BF5960636808BFC8F80010F4
:10347C0062514B60304600F02FF804F10B00231D15
:10348C0020F00700C21A1CBF1B1AA350AFE76268DA
:10349C00A3420CBFC8F800205A60EBE723466468CF
:1034AC00AEE73C467F68B6E71A465B68A342FBD1A1
:1034BC0000235360DEE70C233046336000F00CF839
:1034CC0094E70560D6E700BF400300200148FFF7F2
:1034DC0010BF00BF380300200148FFF70BBF00BF2F
:1034EC0038030020936810B4013B002B936007DA7B
:1034FC009469A34201DB0A2902D110BCFFF7EBBD92
:10350C001368581C10601970084610BC7047F8B549
:10351C0006460F461446D518AC4201D1002007E0F0
:10352C003A46304614F8011BFFF7DCFF431CF3D17D
:10353C00F8BD00002DE9F04F0D461446984606469E
:10354C009DB018B1036A0BB9FFF7DCFC6B6ED907A1
:10355C0005D4AB899A0502D4A86DFFF7CAFEAB89D6
:10356C001B0701D52B699BB929463046FFF7F2FDA5
:10357C0070B16B6EDC0704D54FF0FF301DB0BDE8A9
:10358C00F08FAB899805F7D4A86DFFF7B3FEF3E77E
:10359C000023099320238DF8293030234FF00109A3
:1035AC00CDF80C80DFF8A8818DF82A3023469A4696
:1035BC0013F8012B0AB1252AF9D1BAEB040B0BD065
:1035CC005B46224629463046FFF7A1FF013000F04A
:1035DC00A780099A5A4409929AF80030002B00F0FF
:1035EC009F8000234FF0FF32CDE905230AF1010A39
:1035FC00049307938DF853301A935446052214F80C
:10360C00011B534800F07AFB049AD8B9D10644BF89
:10361C0020238DF85330130744BF2B238DF85330E0
:10362C009AF800302A2B15D0544600204FF00A0C83
:10363C00079A214611F8013B303B092B4BD9B0B10D
:10364C00079214E0A0EB080309FA03F31343A24614
:10365C000493D2E7039B191D1B680391002BBBBF7E
:10366C005B4242F0020207930793B8BF049223789F
:10367C002E2B0AD163782A2B32D1039B02341A1DCC
:10368C001B68039243EAE3730593DFF8C8A0032297
:10369C005046217800F032FB38B14022049BA0EB5D
:1036AC000A00824013430134049314F8011B0622D0
:1036BC0029488DF8281000F021FB00283FD0274B1B
:1036CC001BBB039B073323F0070308330393099BAE
:1036DC003B4409936AE70C4601200CFB0232A8E735
:1036EC0000234FF00A0C194601340593204610F8BC
:1036FC00012B303A092A03D9002BC6D00591C4E717
:10370C00044601230CFB0121F0E703AB00932A468E
:10371C003046134B04A9AFF300800746781CD6D172
:10372C006B6ED90705D4AB899A0502D4A86DFFF747
:10373C00E1FDAB895B063FF51FAF09981EE703ABB4
:10374C0000932A463046064B04A900F07DF8E4E7C6
:10375C00DE3E0008E43E0008E83E000800000000E1
:10376C001B3500082DE9F047164698468A680B6908
:10377C0007469342B8BF1346336091F843200C467A
:10378C00DDF820900AB1013333602368990642BFFB
:10379C00336802333360256815F0060506D104F151
:1037AC00190AE36832689B1AAB422BDC94F843305D
:1037BC002268003B18BF0123920630D4414638469C
:1037CC0004F14302C847013023D02368226903F077
:1037DC000603042B14BF002533684FF0000608BF06
:1037EC00E56804F11A0408BFED1A54F8123C08BF3E
:1037FC0025EAE5759342C4BF9B1AED18B5421AD160
:10380C00002008E00123524641463846C8470130A3
:10381C0003D14FF0FF30BDE8F0870135C1E7302010
:10382C00E11881F843005A1C94F8451022440233E5
:10383C0082F84310C2E70123224641463846C84766
:10384C000130E6D00136D9E72DE9FF470F7E9146CE
:10385C00782F80460C469A460C9E01F1430207D8FD
:10386C00622F0AD8002F00F0D180582F00F0B880BA
:10387C0004F1420684F842703AE0A7F16303152B79
:10388C00F6D801A151F823F0ED38000801390008F1
:10389C007D3800087D3800087D3800087D38000828
:1038AC00013900087D3800087D3800087D38000893
:1038BC007D380008FF3900082B390008B939000899
:1038CC007D3800087D380008213A00087D38000852
:1038DC002B3900087D3800087D380008C1390008F4
:1038EC0033681A1D1B68326004F1420684F84230BA
:1038FC0001239CE033682068191D3160060601D550
:10390C001D6803E04506FBD5B3F90050002D03DA22
:10391C002D236D4284F843300A23584811E0216866
:10392C003368080653F8045B02D4490648BFADB2AD
:10393C006F2F336014BF0A2308235048002184F8EA
:10394C0043106668002EA66005DB21682E4321F02B
:10395C00040121604BD01646B5FBF3F103FB115764
:10396C00C75D06F8017D2F46BB420D46F4D9082BE6
:10397C000BD12368DF0708D5236961689942DEBF44
:10398C00302306F8013C06F1FF36921B22614B46B0
:10399C0021464046CDF800A003AAFFF7E3FE013014
:1039AC004AD14FF0FF3004B0BDE8F087236843F0F4
:1039BC00200323607827324884F8457023683168E7
:1039CC001F0651F8045B02D45F0648BFADB23160EC
:1039DC00D90744BF43F0200323601DB11023ADE78A
:1039EC002648E9E7236823F020032360F6E7164610
:1039FC00BDE733682568181D616930602E061B68A9
:103A0C0001D5196002E06806FBD519800023164623
:103A1C002361BCE7336800211A1D32601E6862689E
:103A2C00304600F06BF908B1801B6060636823615D
:103A3C00002384F84330AAE73246494640462369BE
:103A4C00D0470130ADD023689B0713D4E068039BAB
:103A5C009842B8BF1846A6E701233246494640466D
:103A6C00D04701309DD00135E36803995B1AAB4216
:103A7C00F2DCEBE7002504F11906F5E7EF3E000850
:103A8C00003F0008B1F90C20F8B5160705460C46A6
:103A9C0054D44B68002B02DC0B6C002B48DDE66A1F
:103AAC00002E45D0002312F480522F68216A2B601F
:103ABC0030D0626DA389590705D56368D21A636B40
:103ACC000BB1236CD21A00232846E66A216AB04750
:103ADC00431CA38906D129681D292BD8284ACA4022
:103AEC00D60727D5002262602269D904226004D54A
:103AFC00421C01D12B6803B96065616B2F60B9B1B1
:103B0C0004F14403994202D02846FFF7F5FB002349
:103B1C0063630DE001232846B0470246501CC9D10F
:103B2C002B68002BC6D01D2B01D0162B1DD12F605E
:103B3C00002021E043F040031BB21AE00F69002F74
:103B4C00F6D0930718BF00230E6808BF4B69F61B0D
:103B5C000F608B60002EEBDD33463A462846216A17
:103B6C00D4F828C0E047002807DCB4F90C3043F047
:103B7C0040034FF0FF30A381F8BD0744361AE9E744
:103B8C000100402038B50B6905460C4613B90025D9
:103B9C00284638BD18B1036A0BB9FFF7B3F9B4F96D
:103BAC000C30002BF3D0626ED00704D4990502D4EC
:103BBC00A06DFFF79EFB28462146FFF763FF636E5F
:103BCC000546DA07E4D4A3899B05E1D4A06DFFF781
:103BDC0091FBDDE770B50C46B1F90E1015460029C6
:103BEC001E4696B00CDAA389002113F0800F14BF87
:103BFC0040234FF48063002031602B6016B070BD01
:103C0C006A4600F049F80028EDDB019901F4704197
:103C1C00A1F50053594259414FF48063EBE78B896E
:103C2C00F7B59D0706460C4607D504F147032360FC
:103C3C0023610123636103B0F0BD6A4601ABFFF75A
:103C4C00C9FF009F054639463046FFF7BFFB48B910
:103C5C00B4F90C309A05EED423F0030343F00203BD
:103C6C00A381E2E7A389C4E9040743F08003A3819D
:103C7C00019B20605BB13046B4F90E1000F01EF8C9
:103C8C0028B1A38923F0030343F00103A381A38983
:103C9C001D43A581CFE7000038B50023064D04462F
:103CAC00084611462B60FCF7B1FD431C02D12B6872
:103CBC0003B1236038BD00BF3403002038B50023A6
:103CCC00054D044608462B60FCF7AFFD431C02D1A2
:103CDC002B6803B1236038BD3403002038B50023B2
:103CEC00054D044608462B60FCF7B6FD431C02D17B
:103CFC002B6803B1236038BD34030020034610B594
:103D0C00C9B202449342184601D1002003E0047862
:103D1C0001338C42F6D110BDF8B500BFF8BC08BC1D
:103D2C009E467047F8B500BFF8BC08BC9E4670476D
:103D3C00507265737320627574746F6E20746F208B
:103D4C00656E746572204F5441206D6F6465202838
:103D5C003130732074696D656F7574292E2E2E00A9
:103D6C005374617274696E67206669726D776172E3
:103D7C006520646F776E6C6F616420766961205585
:103D8C004152542E2E2E0000524541445900000041
:103D9C00557064617465206661696C6564212048A6
:103DAC00616C74696E672E00557064617465206473
:103DBC006F6E652120526573657474696E672E2E63
:103DCC002E000000466C6173682073696C6D652071
:103DDC0068617461736921204B6F643A20256C759E
:103DEC000A000000466C6173682073696C6D652075
:103DFC006261736172696C692E00000048656164D0
:103E0C00657220616C6D6120686174617369212039
:103E1C005A616D616E206173696D6921000000004B
:103E2C0048656164657220616C6D612068617461C4
:103E3C0073692120447572756D206B6F64753A201F
:103E4C0025640A004F4B000053454E445F434855D0
:103E5C004E4B0000484154413A204B45534D4520B0
:103E6C005A414D414E204153494D4921000000001B
:103E7C00466C6173682079617A6D61206861746148
:103E8C007369210053554343455353004669726D82
:103E9C007761726520626173617269796C612079F6
:103EAC00617A696C64692100000000000000000068
:103EBC0001020304060708090000000001020304C4
:103ECC0002030405060708090A0B0C0D0E0F10104F
:103EDC000102232D302B2000686C4C006566674571
:103EEC004647003031323334353637383941424366
:103EFC004445460030313233343536373839616217
:083F0C0063646566000000001B
:043F1400310100086F
:043F18000D0100088F
:103F1C0000127A00100000000100000000000000F8
:103F2C0003000000F80100201C000020000000002D
:103F3C00F801002060020020C802002000000000F0
:103F4C000000000000000000000000000000000065
:103F5C000000000000000000000000000000000055
:103F6C000000000000000000000000000000000045
:083F7C0000000000000000003D
:04000005080008DD0A
:00000001FF
